:100000000C944E0A0C947F0A0C947F0A0C947F0A7D
:100010000C947F0A0C947F0A0C947F0A0C947F0A3C
:100020000C947F0A0C947F0A0C947F0A0C947F0A2C
:100030000C947F0A0C947F0A0C947F0A0C947F0A1C
:100040000C947F0A0C947F0A0C947F0A0C947F0A0C
:100050000C947F0A0C947F0A0C947F0A0C944164E0
:100060000C947F0A0C943B680C9491680C947F0A62
:100070000C947F0A0C947F0A0C947F0A0C947F0ADC
:100080000C947F0A0C947F0A0C947F0A0C947F0ACC
:100090000C9406690C945C690C947F0A0C941363AD
:1000A0000C947F0A0C947F0A0C947F0A0C947F0AAC
:1000B0000C947F0A0C947F0A0C947F0A0C947F0A9C
:1000C0000C947F0A0C947F0A0C947F0A0C947F0A8C
:1000D0000C947F0A0C947F0A0C94D1690C94276AC3
:1000E0000C947F0A881090109C10D8104011781141
:1000F00084119411A011D211241284128D1299121C
:10010000CB12DE125A13EB131A13FA1344144A14C7
:1001100063149414C114321541158F15A715DF15FA
:10012000FF156115A8125318F5186A19B219B219FA
:10013000B219B219B219611C6A1C761C881CB71C52
:10014000C01C041D271D301D6C1D171E1E1E3B1ECE
:10015000D42FE73045313A347434A134C634E53411
:100160000C3501398055AD55105646568956B65650
:10017000E0566357AE57DD5715584E589158C5583D
:10018000C558C558C558C558C558D539083A303A24
:10019000A53BE33B1D3C5B3C893CF33C4E3DDC3DD9
:1001A000593E9E3EC03E1F3FA63FCD3F3740924046
:1001B0002A41B14146426842C742434363437043C8
:1001C0006645644790478E49BA49044AA44AE14AC1
:1001D000124B1F4B894B5E4CA74CDD4D0E4EC55844
:1001E0004A4E574EBA4E1B4F764F31509E501451C7
:1001F0003551E3512C528B524053855308544D5482
:100200009B54BC54CE4C1D4DC558C5586D447A44C2
:10021000EC44F94446440A57C558C558C558C55812
:10022000C558C558C558C558C558F04BC558C558C8
:10023000C558C558C558C558C558C558C558DD3ADC
:10024000403B08590C590F59165920592459305917
:100250003B595B59495F605F605F5D5F605F475F0F
:10026000605F605F605F3B5F605F605F505F5B5FD0
:10027000595F605F605F605F575F68656B655A6577
:100280005E656465A2656F65736579657D65816589
:1002900087658B658F65A265956599659D654D44FC
:1002A000422053454D204551554950414D454E54EE
:1002B0004F532E0020526573706F737461203A2083
:1002C00000434841564520444520505245454E4341
:1002D00048494D454E544F20415449564144412EC2
:1002E000004E4F54412052454A4549544144412E05
:1002F0000042494C4C2044495341424C452E004356
:1003000041534820424F58204F5554204F462050CB
:100310004F534954494F4E2E0042494C4C205245B0
:100320005345542E0056414C4F52205245544F5283
:100330004E41444F3A200056414C4F5220524554B2
:100340004F524E41444F3A200056414C4F522049A3
:100350004E53455249444F204E4F54412845534334
:10036000524F5720415449564F293A200056414C8C
:100370004F5220494E53455249444F204E4F54410D
:1003800028455343524F5720415449564F293A204C
:100390000056414C4F5220494E53455249444F203C
:1003A000444F20455343524F572050415241205310
:1003B0005441434B45443A200056414C4F5220494A
:1003C0004E53455249444F204E4F544128455343C4
:1003D000524F5720494E415449564F293A20005612
:1003E000414C4F5220494E53455249444F20444FAF
:1003F00020455343524F57205041524120535441BE
:10040000434B45443A200056414C4F5220494E53ED
:10041000455249444F204E4F544128455343524F73
:100420005720494E415449564F293A200056414CD5
:100430004F5220494E53455249444F20444F204586
:100440005343524F57205041524120535441434B44
:1004500045443A200056414C4F5220494E53455294
:1004600049444F204E4F544128455343524F572043
:10047000494E415449564F293A200056414C4F525B
:1004800020494E53455249444F205455424F3A203B
:100490000056414C4F5220494E53455249444F203B
:1004A000434F4652453A2000424F4F5420434F4954
:1004B0004E20434F4D504C45544F2E00424F4F5409
:1004C0002042494C4C20434F4D504C45544F2E0038
:1004D000424F4F54204341534820434F4D504C45C9
:1004E000544F2E005245534554204D444220424F14
:1004F0004F5400333020536567756E646F73004D41
:1005000044422052455345540036302053656775A8
:100510006E646F730020202020204D414E555445BD
:100520004E43414F2E002020204551554950414D0A
:10053000454E544F20454D004649434152412049C4
:100540004E4F504552414E54452E004D4F4544416B
:10055000532C204D415155494E41004552524F2098
:10056000414F20454E54524547415200494E44495F
:10057000434144412C204F4252494741444F2100BE
:10058000524554495245204E41205341494441006F
:10059000434F4D205355434553534F2C004D4F452A
:1005A00044415320454E54524547554553004D4F05
:1005B00045444120454E545245475545002020446E
:1005C000495350454E53414441533A20302E002068
:1005D0002020515444204D4F454441533A20322E5F
:1005E0000056414C4F5220494E532E3A205224324D
:1005F000302C3030002020202020414755415244EB
:10060000452E2E2E00202044495350454E53414440
:1006100041533A20302E00202020515444204D4F89
:10062000454441533A20312E0056414C4F52204907
:100630004E532E3A20522431302C303000202020CE
:100640002020414755415244452E2E2E0020202087
:1006500020202020202020202020202020202000BA
:1006600056414C4F5220494E53455249444F3A202F
:100670000020202020202020203030005154442011
:100680004D4F454441532044495350454E532E3A13
:10069000002020202020202020202020202020207A
:1006A000202020002020202020204556454E544F59
:1006B000202020202020003A00200030002F003091
:1006C000002F0030002F0030003A00300046580064
:1006D00030002F0030002F0030002F0030003A0093
:1006E000300030002F0030002F0030002F0030008D
:1006F0003A00300030002F0030002F0030002F0073
:1007000030003A00300030002F0030002F00300061
:100710002F003000300056414C4F5220494E464584
:1007200052494F522E00494E5349524120554D00D7
:100730004553544F51554520535546494349454E1D
:1007400054452C004551554950414D454E544F207C
:1007500053454D0046494341524120494E4F504573
:1007600052414E54452E004D4F454441532C204D8F
:10077000415155494E41004552524F20414F20456D
:100780004E54524547415200494E44494341444129
:100790002C204F4252494741444F21005245544971
:1007A00052452D4153204E4120534149444100437D
:1007B0004F4D205355434553534F2C004D4F454407
:1007C000415320454E545245475545530020202063
:1007D000515444204D4F454441533A20342E005645
:1007E000414C4F5220494E532E3A20522430302C47
:1007F000303000202020515444204D4F4544415377
:100800003A20342E0056414C4F5220494E532E3A36
:1008100020522432302C30300020202051544420EB
:100820004D4F454441533A20322E0056414C4F52D1
:1008300020494E532E3A20522431302C303000497A
:100840004E4449434144412C204F42524947414480
:100850004F21005245544952452041204E412053DA
:100860004149444100434F4D205355434553534F55
:100870002C004D4F45444120454E54524547554567
:10088000004C4F43414C20494E44494341444F2E74
:100890000044495350454E534144412050454C4F2C
:1008A0000041204D4F4544412053454A41004147B6
:1008B0005541524445204154452051554500202082
:1008C00020515444204D4F454441533A20312E008D
:1008D0002056414C4F5220494E532E3A2052243537
:1008E0002C3030005F00434F52524947495220207C
:1008F0000020202020202020202020202020202018
:100900002020202000434F4E4649524D413F204F6A
:100910004B202F2020005F005F0030005F005F0051
:1009200030005F00564F4C544152202000202020C0
:1009300020202020202020202020202020202020B7
:1009400000434F5252494749522020002020202086
:1009500020202020202020202020202020202000B7
:10096000564F4C5441522020005F5F2F5F5F2F5F36
:100970005F00434F4E462E20444154413A204444A8
:100980002F4D4D2F4141004D454E552030342E31D5
:100990002E32005F00434F525249474952202000F7
:1009A0002020202020202020202020202020202047
:1009B00020202000434F4E4649524D413F204F4B8F
:1009C000202F20200030005F003030005F003030EA
:1009D0000030005F00564F4C544152202000202030
:1009E0002020202020202020202020202020202007
:1009F0002000434F525249474952202000202020D6
:100A000020202020202020202020202020202020E6
:100A100000564F4C5441522020005F5F3A5F5F0008
:100A2000564F4C544152202000434F4E4649472ECA
:100A300020484F52413A203234487273004D454E9F
:100A4000552030342E312E3100202054454E54454F
:100A5000204E4F56414D454E544521002020204503
:100A600052524F204E4F20544553544500202020D1
:100A700020203020534547554E444F532C00202012
:100A80002020203120534547554E444F532C002001
:100A9000202020203220534547554E444F532C00F0
:100AA000202020202020414755415244452E00203F
:100AB000202020203320534547554E444F532C00CF
:100AC0002053455241205245494E494349414441F2
:100AD00020454D3A00202020202041204D415155F5
:100AE000494E41002020202020494E4449434144A2
:100AF000412E00202041204D4F454441204E4120B1
:100B0000534149444100434F4D20535543455353AE
:100B10004F2C2052455449524500202054455354EF
:100B200045205245414C495A41444F004F205445BD
:100B30005354452045205245414C495A41444F00A9
:100B400020204147554152444520454E5155414E84
:100B5000544F0020202020434F4D205355434553F0
:100B6000534F21002020202020205245534554413E
:100B7000444F0052454C41544F52494F5320444535
:100B80002056454E44415300434F4E4649524D4135
:100B9000204F4B202F20200052454C41544F5249AA
:100BA0004F2044452056454E4441533F0044455351
:100BB000454A412052455345544152204F00544527
:100BC0004D2043455254455A4120515545002C3043
:100BD0003000300030300030303000303030300005
:100BE000524543454954413A2052242000300030B8
:100BF0003000303030003030303000303030303085
:100C00000020202020202020202020202020202004
:100C1000202020202000515444204D4F4544415372
:100C20002044495350454E532E3A002C303000306A
:100C3000003030003030300030303030005245432A
:100C4000454954413A2052242000300030300030D1
:100C50003030003030303000303030303000202044
:100C60002020202020202020202020202020202084
:100C7000202000515444204D4F45444153204449C5
:100C80005350454E532E3A00444554414C4841522E
:100C9000204F4B202F202020202020004D454E5556
:100CA0002030312E3400444554414C484152204FAD
:100CB0004B202F202020202020004D454E55203055
:100CC000312E340020202020202020202020202011
:100CD00020202020202020004445204552524F2E25
:100CE000004E454E48554D204556454E544F202008
:100CF0002020202000444554414C484152204F4B75
:100D0000202F202020202000434F4D2053554345C5
:100D100053534F21004553544F51554520414C5496
:100D2000455241444F00434F5252494749522020B7
:100D300000202020202020202020202020202020D3
:100D400020202020005F00434F4E4649524D413F36
:100D5000204F4B202F20200030005F003030005FFC
:100D600000303030005F00564F4C5441522020007C
:100D70002020202020202020202020202020202073
:100D800020202000434F5252494749522020002042
:100D90002020202020202020202020202020202053
:100DA000202000564F4C5441522020004553542ED1
:100DB00020415455414C2020202020005F5F5F5F80
:100DC00000444947495445204F2056414C4F523A20
:100DD000004D454E552030322E322E3100434F4DBE
:100DE000205355434553534F21004553544F5155BC
:100DF0004520415455414C495A41444F00434F52BC
:100E00005249474952202000202020202020202025
:100E10002020202020202020202020005F00434F81
:100E20004E4649524D413F204F4B202F202000304D
:100E3000005F003030005F00303030005F00564F00
:100E40004C5441522020002020202020202020200F
:100E50002020202020202020202000434F525249D3
:100E60004749522020002020202020202020202020
:100E700020202020202020202000564F4C5441527A
:100E80002020004553542E20415455414C20202011
:100E90002020005F5F5F5F00444947495445204F71
:100EA0002056414C4F523A004D454E552030322E7F
:100EB000312E3100434F4E4649524D413F204F4B5A
:100EC000202F202000414C5445524152204553547C
:100ED0004F515545004D454E552030322E3200437E
:100EE0004F4E4649524D413F204F4B202F2020006E
:100EF00041444943494F4E4152204553544F515567
:100F000045004D454E552030322E31002041504194
:100F100052454349444120202020002052494F207F
:100F20002020202020202020004F4B202F20200098
:100F30002041504152454349444120202020002077
:100F400052494F20202000415455414C3A20202046
:100F500020202020202020202000202052494F2027
:100F6000202F204150415245434944410020202038
:100F7000312020202F20202032002020202020205F
:100F800044452056454E4441002020202020454D18
:100F90002053454C4543414F002020202020205322
:100FA00045525649434F002020202020454D204DDA
:100FB000454E552044450020202020204D414E55CF
:100FC00054454E43414F2E00202020455155495055
:100FD000414D454E544F20454D0020202020534583
:100FE0004D204553544F51554500202020202020AE
:100FF0002020202020202020202020200020202011
:10100000204551554950414D454E544F0020202018
:101010004D4F45444153202042524153494C0020FA
:1010200020444F2050414F204445204143554341E7
:101030005200444F2053414E5420444520415041DA
:1010400052454349444100204C45564520554D41A9
:10105000204C454D4252414E434100434F4E46497C
:10106000524D413F204F4B202F2020005449504FDC
:10107000204D415155494E41004D454E5520303689
:1010800000434F4E4649524D413F204F4B202F20A9
:101090002000524553455420444F20534953544552
:1010A0004D41004D454E5520303500434F4E464989
:1010B000524D413F204F4B202F202000434F4E46A2
:1010C00049472052454C4F47494F004D454E55200A
:1010D000303400434F4E4649524D413F204F4B2044
:1010E0002F202000544553544553004D454E552064
:1010F000303300434F4E4649524D413F204F4B2025
:101100002F20200029003030003000434F4E464948
:1011100047204553544F5155452028004D454E55C5
:1011200020303200434F4E4649524D413F204F4BF5
:10113000202F20200052454C41544F52494F20440B
:10114000452056454E444153004D454E55203031C3
:1011500000434F4E4649524D413F204F4B202F20D8
:1011600020004C4452004D454E552030332E330064
:10117000434F4E4649524D413F204F4B202F202098
:101180000044495350454E5341204D414E55414C2A
:10119000004D454E552030332E3200434F4E4649C8
:1011A000524D413F204F4B202F2020005445535497
:1011B0004520444520454E5452454741004D454E3B
:1011C000552030332E3100434F4E4649524D413F5A
:1011D000204F4B202F2020004556454E544F532082
:1011E00044452046414C4841004D454E5520303144
:1011F0002E3400434F4E4649524D413F204F4B2025
:101200002F2020005245534554412052454C415413
:101210004F52494F53004D454E552030312E33002B
:10122000434F4E4649524D413F204F4B202F2020E7
:10123000005045524D414E454E54450052454C419B
:10124000544F52494F004D454E552030312E3200FB
:10125000434F4E4649524D413F204F4B202F2020B7
:101260000052454C41544F52494F20415449564F2A
:10127000004D454E552030312E3100434F4E4649EA
:10128000524D413F204F4B202F202000434F4E46D0
:1012900049472E2044415441004D454E552030349D
:1012A0002E3200434F4E4649524D413F204F4B2076
:1012B0002F202000434F4E4649472E20484F524191
:1012C000004D454E552030342E3100202020202066
:1012D0002044452056454E444100202020202045F2
:1012E0004D2053454C4543414F002E002E002E000B
:1012F000504F5745522056454E44494E47205600C0
:10130000414755415244450053495354454D4100CE
:10131000494E494349414C495A414E444F002E00E1
:10132000504F5745522056454E44494E472056008F
:10133000414755415244450053495354454D41009E
:10134000494E494349414C495A414E444F004D6131
:101350007220203320323032320030393A34383A79
:101360003433001F1C1F1E1F1E1F1F1E1F1E0000C8
:101370000A0B02090C0D0E0807030401000000000F
:10138000000000000000000000000000000000005D
:10139000000000000000000000001211100000001A
:1013A000000000000000000000000000000000003D
:1013B000000000000102102020080810204010202A
:1013C0004080020102010804020101020408102009
:1013D0004080804020100804020180040201804007
:1013E0002010080402010804020101020408102070
:1013F000408001020408102040800505050507050E
:1014000008080808020202020A0A08080404040480
:1014100001010101010101010303030303030303AC
:10142000040707070C0C0C0C0C0C0C0C020202023B
:1014300006060606060606060B0B0B0B0B0B0B0B24
:10144000000020002300260029002C002F0032007D
:10145000000100000301060109010000220025002F
:1014600028002B002E00310034000201000005018D
:1014700008010B0100002100240027002A002D0094
:101480003000330001010000040107010A016F234D
:1014900057353462C3688E69596AA73511241FBE57
:1014A000CFEFD1E2DEBFCDBF00E00CBF18E0A0E07F
:1014B000B2E0EEEFF1EE00E00BBF02C007900D923C
:1014C000A63FB107D9F721E1A6EFB8E001C01D9210
:1014D000AC3CB207E1F714E1CAE9D4E100E006C090
:1014E00022970109FE010BBF0E948D6ECE38D107F5
:1014F00080E00807A9F70E949D6A0C94EE700C9496
:101500000000DC01ED91FC910484F585E02D199437
:101510008F929F92AF92BF92CF92DF92EF92FF9203
:101520000F931F93CF93DF93EC01962E872E8CE4BD
:10153000DE011D928A95E9F780E38B8F8C8F8D8F6A
:101540008E8F8F8F88A389A38AA38BA38CA38DA34F
:101550008EA38FA388A789A78AA78BA78CA78DA7FF
:101560008EA78FA788AB89AB8AAB8BAB8CAB8DABCF
:10157000FE01E45BFF4F8AE7DF011D928A95E9F7E0
:10158000E658FF4F88E4DF011D928A95E9F7E85B92
:10159000FF4F8BE1DF011D928A95E9F7E552FE4F7F
:1015A0008FEF90E09183808332969183808332968F
:1015B00011821082329611821082369684E1DF0108
:1015C0001D928A95E9F776961182108232961182E1
:1015D00010825E01B1EFAB1ABCEFBB0AF5011182BC
:1015E00010823296118210823296118210823296C7
:1015F00011821082329611821082329611821082EC
:1016000034961182108232961182108232961182A3
:101610001082329611821082329611821082329696
:1016200011821082329611821082329611821082BB
:101630003296118210823296118210823296118275
:1016400010823296118210823296118210820E948C
:101650008B64FE01E95CFC4F7183608332961182DA
:1016600010823296118210823296118210820E946C
:101670008B648E01015C1C4FD8016D937C93FE013D
:10168000EF5BFC4F118210820E948B647E01BDEBE8
:10169000EB1ABCEFFB0AF70171836083329611826B
:1016A00010820E948B646E01F9EBCF1AFCEFDF0A07
:1016B000D6016D937C93FE01E75BFC4F1182108293
:1016C0000E948B64FE01E55BFC4F71836083329660
:1016D000118210820E948B64FE01E15BFC4F7183DA
:1016E00060833296118210820E948B64FE01ED5A53
:1016F000FC4F718360833296118210820E948B644A
:10170000FE01E95AFC4F7183608332961182108288
:101710000E948B64FE01E55AFC4F71836083329610
:10172000118210820E948B64FE01E15AFC4F71838A
:1017300060833296118210820E948B64FE01ED5903
:10174000FC4F718360833296118210820E948B64F9
:10175000FE01E959FC4F7183608332961082319605
:1017600082E090E0918380833296918380833296E9
:101770009183808332961182108232961182108278
:101780003296118210823296118210823296118224
:101790001082329611821082329611821082329615
:1017A000118210823296118210823296118210823A
:1017B00026E031E040E855E260E070E08DE090E145
:1017C0000E94D26761E0892D0E94A36560E0892DA7
:1017D0000E94DC65FE01E55EFC4F908281820E94E2
:1017E0008B64F601718360830E948B64D7016D93D3
:1017F0007C930E948B64F8017183608381E090E0A8
:10180000D5018D939C93DF91CF911F910F91FF9004
:10181000EF90DF90CF90BF90AF909F908F90089502
:1018200020E030E0FC01E20FF31FE458FF4F40815D
:1018300051814435510551F04C34510539F02E5F3A
:101840003F4F2630310571F780E0089581E008951B
:10185000CF93DF93EC01FC01E15FFC4F81E090E06E
:1018600091838083E55AFF4F82E090E091838083EB
:10187000329691838083329691838083349611824D
:101880001082329611821082329611821082329624
:101890001182108232961182108232961182108249
:1018A0003296118210823296118210820E948B64CD
:1018B000FE01E95BFC4F718360830E948B64FE0133
:1018C000ED5BFC4F718360830E948B64C15CDC4FD5
:1018D00079836883DF91CF910895EF92FF920F9300
:1018E0001F93CF93DF93EC018C01035D1C4FF80134
:1018F000808191818130910509F446C01CF4892BC7
:1019000049F0C7C08230910509F472C0039709F409
:10191000ACC0BFC0FE01EC58FC4F80819181E55402
:10192000F1090197A9F480819181892B89F4349779
:1019300080819181019709F0ACC00E948B64CD59E0
:10194000DC4F79836883F8018081918101960DC015
:1019500080819181009761F40E948B64CD59DC4FA6
:101960007983688382E090E0F8019183808391C05D
:10197000019709F08EC00E948B64CD59DC4F7983AA
:10198000688383E090E0F0CF0E948B64FE01EF5902
:10199000FC4F71836083329620813181621B730B0F
:1019A000C55DDC4F61367A4EE8F069E075E080E3B2
:1019B0009FE00E94346B88819981019799F46FEFC1
:1019C00074E080E39FE00E94346B68E873E180E09C
:1019D00090E00E94BA640C94000019821882F80109
:1019E0001182108288819981892B09F052C04EC0E2
:1019F0000E948B64FE01EF59FC4F71836083329625
:101A000020813181621B730BCE018C589C4F7C016D
:101A100061337547F0F063EF74E080E39FE00E946C
:101A2000346BF70180819181892B99F468E873E127
:101A300080E090E00E94BA640C94000064EE74E0D0
:101A400080E39FE00E94346BCE0102DFF801118237
:101A50001082F701808191810197C1F0C15DDC4F57
:101A6000888199810197A9F411C00E948B64FE01BD
:101A7000EF59FC4F71836083329620813181621B64
:101A8000730B61367A4E28F0CE01E2DEF801118246
:101A90001082DF91CF911F910F91FF90EF900895E9
:101AA000FB0120E030E080E090E041505109241734
:101AB00035073CF461917191860F971F2F5F3F4F5F
:101AC000F6CF992708950F931F93CF93DF93EB01E0
:101AD0008A01E6DFF801E150F048EE0FFF1FEC0F3E
:101AE000FD1F2081318133273183208341E082171C
:101AF000930709F040E0842FDF91CF911F910F9160
:101B000008959B0120723327FC01E35DFE4F318372
:101B1000208360717727329671836083232B29F4A9
:101B20006031710519F0672B19F0089581E001C04B
:101B300080E090E00895DC01AB5BBE4FFB01E870F4
:101B4000FF271196FC93EE931296AB014470552734
:101B500011965C934E9312969B0122703327119637
:101B60003C932E936170772712966D937C93CF01EF
:101B7000840F951F820F931F860F971F08959B0157
:101B800020783327FC01E75DFE4F31832083AB01D2
:101B9000407455273296518340833296DB01A07200
:101BA000BB27B183A08332966071772771836083EE
:101BB0002115310531F44034510549F080E090E0C1
:101BC000089520383105D1F783E090E0089582E050
:101BD00090E00895FB01E074FF27DC01A75CBE4F95
:101BE0001196FC93EE93AB01407255271296119615
:101BF0005C934E939B012071332712962D933C9357
:101C00003097A9F460737727672B49F14115510587
:101C100021F42031310511F524C040325105F1F491
:101C20002115310501F120313105C1F41EC0E03428
:101C3000F105A1F460737727672BC9F041155105B1
:101C400021F42031310551F414C04032510531F4F2
:101C50002115310581F02031310579F0089584E0B6
:101C60000DC085E00BC086E009C087E007C088E0B2
:101C700005C089E003C08AE001C08BE090E00895D0
:101C8000DC01A15BBE4FFB01E870FF271196FC93BE
:101C9000EE931296AB014470552711965C934E93C8
:101CA00012969B012270332711963C932E936170FC
:101CB000772712966D937C93CF01840F951F820F27
:101CC000931F860F971F0895FC01E458FF4F208152
:101CD00031812A34310579F03296208131812A34DC
:101CE000310549F0329681E0208131812A34310575
:101CF00019F080E0089581E008958F5E9C4FFC010B
:101D00008081918108958F5E9C4FFC017183608377
:101D1000089580599C4FFC01808191810895EF9234
:101D2000FF920F931F93CF93DF937C010E948B64EC
:101D3000F701E75CFC4F71836083E701C55CDC4F12
:101D400028813981621B730B6135710508F44CC021
:101D500087010E581C4FF8018081918181309105D7
:101D600099F08230910541F1892B09F03DC03496FC
:101D7000808191810197C9F463E371E08DE090E186
:101D8000C0DB63E370E00EC0F701E858FC4F8081D0
:101D90009181019751F46BE071E08DE090E1B1DB4E
:101DA0006BE070E08DE090E1ACDBF8018081918127
:101DB00001969183808314C0F701E658FC4F80811F
:101DC0009181019751F462E171E08DE090E199DB3E
:101DD00062E170E08DE090E194DBF8011182108205
:101DE0000E948B6479836883DF91CF911F910F915B
:101DF000FF90EF900895EF92FF920F931F93CF9370
:101E0000DF93CDB7DEB7A8970FB6F894DEBF0FBE4D
:101E1000CDBF2CE031E03A8329837C836B835E83E2
:101E20004D8318861F821A86198646E050E0BE014F
:101E30006F5F7F4F35DE9C878B878E010F5F1F4F53
:101E40007E018DE0E80EF11CF801619171918F0126
:101E50008DE090E156DB0E151F05B1F78DE090E1A6
:101E60000E947766A8960FB6F894DEBF0FBECDBF6E
:101E7000DF91CF911F910F91FF90EF90089520E097
:101E800030E0E1E0F0E060E070E040E050E0DC01F4
:101E9000A20FB31FDC96AC91283031052CF4A13091
:101EA00039F44E0F5F1F04C0A13011F46E0F7F1F75
:101EB000EE0FFF1F2730310511F4E1E0F0E02F5F56
:101EC0003F4F2031310519F796CFEF92FF920F93D4
:101ED0001F93CF93DF93CDB7DEB7A8970FB6F894D3
:101EE000DEBF0FBECDBF24E331E03A8329837C837C
:101EF0006B835E834D83FC01E351FD4F2081318173
:101F000038872F833296208131813A87298746E0AE
:101F100050E0BE016F5F7F4FC3DD9C878B878E01D2
:101F20000F5F1F4F7E018DE0E80EF11CF8016191FB
:101F300071918F018DE090E1E4DA0E151F05B1F784
:101F40008DE090E10E947766A8960FB6F894DEBF08
:101F50000FBECDBFDF91CF911F910F91FF90EF90FA
:101F6000089540E050E060E070E0AFCFCF93DF93A2
:101F7000FC0120E030E0A1E0B0E060E070E040E093
:101F800050E0EF01CA54DF4FC881283031052CF4EE
:101F9000C13039F44A0F5B1F04C0C13011F46A0F1D
:101FA0007B1FAA0FBB1F2730310511F4A1E0B0E061
:101FB0002F5F3F4F31962031310519F7DF91CF91D7
:101FC00084CF2F923F924F925F926F927F928F9227
:101FD0009F92AF92BF92CF92DF92EF92FF920F93B8
:101FE0001F93CF93DF9300D0CDB7DEB72C018C01C8
:101FF0003C0134E1630E711C7C014C0182E5880ECA
:10200000911C5201E3E1AE1AEDEFBE0A6201F1E16B
:10201000CF1AFDEFDF0AF801E45AFF4FA081B1812A
:10202000F40120803180A29DC001A39D900DB29D3E
:10203000900D1124F701EA54FF4F843F31E09307DC
:1020400049F0883E33E0930739F0803D974031F402
:10205000208305C0608303C0408301C01082F50166
:1020600011821082F60111821082C2012B834A83F1
:1020700069837CDF0E5F1F4FFFEFEF1AFF0A2B8192
:102080004A8169810615170531F60F900F900F9060
:10209000DF91CF911F910F91FF90EF90DF90CF9044
:1020A000BF90AF909F908F907F906F905F904F9078
:1020B0003F902F9008955ACFEF92FF920F931F9366
:1020C000CF93DF93EC010E948B64FE01E75BFC4F32
:1020D000718360838E01055B1C4FD8012D913C916B
:1020E000621B730B6333710508F4D7C10E948B64C4
:1020F000F801718360830D5D1F4FD801ED91FC9154
:10210000EB30F10508F0C9C1EE58FF4F0C946E6E2C
:1021100060E171E08DE090E1F4D960E170E000C130
:102120008DE090E10E9477668115914009F484C1A9
:10213000F80111821082B1C181E191E0BE01675ABC
:102140007E4FDB018D939C93FE01E55AFE4F118279
:10215000108283E090E032969183808384E090E067
:1021600032969183808384E190E0329691838083DC
:1021700032961182108247E050E0CE0191DCFE01E0
:10218000EB59FE4F91838083E12CF12CFE01EE0D83
:10219000FF1DE75AFE4F608171818DE090E1B1D95A
:1021A000B2E0EB0EF11CEEE0EE16F10479F744C15B
:1021B0008DE090E10E94416607970CF46EC1E12C1E
:1021C000F12C8DE090E10E944166892B59F08DE061
:1021D00090E10E947766FE01EE0DFF1DE75AFE4F6B
:1021E00091838083B2E0EB0EF11CE2E1EE16F10484
:1021F00041F749E050E0BE01675A7E4FCE0163DCF3
:10220000882369F060E070E08DE090E17AD9D80130
:102210008D919C91119701968D939C9305C06AEACC
:1022200070E08DE090E16DD9FE01EA53FF4FDE01D1
:10223000A55ABE4F8D919C911197918380833296C0
:1022400012968D919C91119791838083329612966C
:102250008D919C91119791838083329612968D91E6
:102260009C91119791838083329612968D919C91C7
:10227000918380833296CB59DE4F888199810BC13F
:1022800081E191E0BE01675A7E4FFB01918380831B
:1022900081E090E03296918380838FEF90E03296D8
:1022A000918380833296918380833296118210824B
:1022B00032961182108247E050E0CE01F1DBFE0140
:1022C000EB59FE4F91838083E12CF12CFE01EE0D42
:1022D000FF1DE75AFE4F608171818DE090E111D9B9
:1022E000F2E0EF0EF11C2EE0E216F10479F7A4C043
:1022F0008DE090E10E9477668115914009F4C7C096
:1023000084E090E0D8019DC064E171E08DE090E14F
:10231000F8D861E070E08DE090E1F3D865E170E01D
:102320008DE090E1EED8B3C08DE090E10E94776639
:102330008115914009F480C085E090E0F801ABC0C0
:10234000BE01675A7E4F87E191E0DB018D939C933C
:1023500080E090E0FE01E80FF91FE55AFE4F118280
:10236000108202968C339105A9F740E250E0CE012D
:1023700097DBFE01E956FE4F91838083E12CF12C1F
:10238000FE01EE0DFF1DE75AFE4F608171818DE069
:1023900090E1B7D8B2E0EB0EF11CE0E4EE16F104E8
:1023A00079F74AC08DE090E10E9441660C970CF4E9
:1023B00074C0E12CF12C8DE090E10E944166892BE4
:1023C00091F18DE090E10E947766FE01E75AFE4FA1
:1023D00091838083B3E0EB16F10420F4E758F10910
:1023E000918380839701235031092C30310528F4E3
:1023F000FE01EE52FF4F9183808397012F503109E8
:102400002C30310528F4FE01EE52FF4F918380837A
:1024100097012B5131092230310528F4FE01EE528B
:10242000FF4F91838083EFEFEE1AFE0A2296FFE1C1
:10243000EF16F10409F0BFCFD8018D919C9111974F
:1024400001968D939C9329C081E090E0FE01E658AF
:10245000FC4F9183808360ED74E080E39FE00E94F5
:10246000346BFE01E258FC4F80819181892B79F415
:10247000329780819181892B51F4349680819181AA
:102480008130910521F4CC58DC4F99838883F80181
:1024900080819181019691838083DF91CF911F91FB
:1024A0000F91FF90EF900895AF92BF92CF92DF927D
:1024B000EF92FF920F931F93CF93DF93EC010E9453
:1024C0008B64FE01EF5BFC4F718360838E010D5BBB
:1024D0001C4FD8012D913C91621B730B6333710526
:1024E00008F48DC30E948B64F80171836083095DD9
:1024F0001F4FD801ED91FC91E631F10508F07FC343
:10250000E358FF4F0C946E6E60E371E08DE090E154
:102510000E94810A60E370E046C08DE090E10E9475
:1025200077668115914009F49AC2F80111821082F0
:1025300066C363E371E08DE090E10E94810A63E38A
:1025400070E08DE090E10E94810A85E190E033C364
:10255000E12CF12C8DE090E10E944166892B89F0FD
:102560008DE090E10E947766FE01EE0DFF1DE75AB7
:10257000FE4F9183808360E070E08DE090E10E94E7
:10258000810AB2E0EB0EF11CE4E1EE16F10411F762
:1025900083E090E010C361E371E08DE090E10E9480
:1025A000810A61E370E08DE090E10E94810AF80108
:1025B0008081918101969183808321C38DE090E198
:1025C0000E9441660F970CF41AC37E01F7EFEF1AD1
:1025D000FCEFFF0AD7011D921C926E015E01B8E369
:1025E000AB0EB11C8DE090E10E944166892B79F021
:1025F000F701808191810196918380838DE090E144
:102600000E947766F601E75AFE4F91838083F2E0DD
:10261000CF0ED11CCA14DB0429F7D7014D915C9170
:10262000BE01675A7E4FCE014EDA882399F160E0F1
:1026300070E0B9CF8DE090E10E9441664E970CF4B6
:10264000DEC2E12CF12C8DE090E10E944166892BE5
:1026500089F08DE090E10E947766FE01EE0DFF1D8E
:10266000E75AFE4F918380836AE070E080E090E05B
:102670000E94BA64F2E0EF0EF11C2CE3E216F104C2
:1026800011F7BE01675A7E4F4EE150E0CE011BDAD2
:102690008111E5C16AEA70E08DE090E1DF91CF91B0
:1026A0001F910F91FF90EF90DF90CF90BF90AF9070
:1026B0000C94810AFE01E75AFE4F80819181ED5012
:1026C000F1409183808320E030E0E15FFE4F308174
:1026D000329680819181822B932BED50F140918332
:1026E0008083EF5EFE4F808191811816190624F4D5
:1026F000EF50F14091838083FE01ED59FE4F8081C0
:1027000091811816190624F4EF50F14091838083CB
:10271000FE01E959FE4F80819181181619061CF4BB
:10272000E151F1400AC0FE01E759FE4F80819181DD
:102730001816190624F4E351F14091838083FE01B9
:10274000E359FE4F80819181E351F1409183808371
:10275000EF5EFE4F80819181E351F1409183808350
:10276000CE012CE030E0FC01E159FE4F4081518167
:10277000E351F140433351051CF01182108202C035
:10278000518340832150310902962115310559F7B3
:1027900066E371E08DE090E10E94810A66E370E0FB
:1027A0008DE090E10E94810A62E370E080E090E0B9
:1027B0000E94BA648DE090E10E9477668DE090E11E
:1027C0000E947766C25BDF4F998388838DE090E13A
:1027D0000E947766B6C167E371E08DE090E10E94E8
:1027E000810A60E070E08DE090E10E94810A67E379
:1027F00070E0D9CE80E090E0BE016E547F4FDE01E4
:10280000A157BE4F8330910558F49E01275A3E4F81
:10281000F901408151812D5D3109F90151834083D6
:102820009C01235031092C30310558F49E01275A60
:102830003E4FF901408151812D5D3109F9015183EC
:1028400040839C012F5031092C30310560F49E01EA
:10285000275A3E4FF901408151812D5D3109F9011F
:102860005183408309C08B31910531F42D913C9106
:102870001197FB0131832083019622968E319105B9
:1028800009F68BE090E097C121E041E060E0CE01E5
:1028900098DB8DCE8DE090E10E947766C75ADE4FBF
:1028A000998388838115914049F460E070E08DE060
:1028B00090E10E94810A82E190E07DC1F80180816F
:1028C0009181019778CEFE01E759FC4F1082CE012D
:1028D0009E012A5F3F4F61E0DC01A458BF4F4D913C
:1028E0005C914435510509F4608302968217930781
:1028F00099F7C45BDF4F88819981029794F08081BA
:1029000081110FC067E371E08DE090E10E94810AC0
:1029100063E070E08DE090E10E94810A6AE370E07C
:102920000CC189E090E0F9C08DE090E10E94416621
:1029300003970CF464C1E12CF12C8DE090E10E942E
:102940004166892B89F08DE090E10E947766FE0157
:10295000EE0DFF1DE75AFE4F918380836AE070E021
:1029600080E090E00E94BA64F2E0EF0EF11C26E0F5
:10297000E216F10411F7BE01675A7E4F43E050E0C2
:1029800085CE87E391E0BE01675A7E4FFB019183BC
:10299000808384E090E03296918380833296118226
:1029A000108232961182108281E090E032969183FB
:1029B000808383E090E03296918380833296118207
:1029C00010823296118210823296118210823296D3
:1029D00011821082329611821082329611821082F8
:1029E00032961182108232961182108232961182B2
:1029F00010823296118210823296118210823296A3
:102A000011821082329611821082329611821082C7
:102A100045E150E0CE0144D8FE01EF57FE4F9183CF
:102A20008083E12CF12CFE01EE0DFF1DE75AFE4FD5
:102A3000608171818DE090E10E94810AF2E0EF0EE9
:102A4000F11C2AE2E216F10471F76EE170E080E019
:102A500090E00E94BA648DE090E10E94776660E0A9
:102A600070E06BC067E371E08DE090E10E94810A45
:102A700065E070E08DE090E10E94810A6CE370E017
:102A800092CDE12CF12C8DE090E10E944166892BE2
:102A900059F08DE090E10E947766FE01EE0DFF1D7A
:102AA000E75AFE4F91838083F2E0EF0EF11C26E49B
:102AB000E216F10441F7BE01675A7E4F43E250E04F
:102AC0006CC067E371E08DE090E10E94810A61E0F3
:102AD00070E08DE090E10E94810A62E070E08DE09C
:102AE00090E10E94810A60E070E08DE090E10E9438
:102AF000810A60E070E08DE090E10E94810A60E070
:102B000070E08DE090E10E94810A6AE370E08DE060
:102B100090E10E94810A80E190E0F8014CCD67E3EA
:102B200071E08DE090E10E94810A62E070E08DE04A
:102B300090E10E94810A69E370E08DE090E10E94DB
:102B4000810AD8018D919C911197019635C08DE035
:102B500090E10E94416682970CF451C0E12CF12C67
:102B60008DE090E10E944166892B59F08DE090E163
:102B70000E947766FE01EE0DFF1DE75AFE4F91831E
:102B80008083B2E0EB0EF11CE4E4EE16F10441F7B1
:102B9000BE01675A7E4F42E250E0CE010E94630DB3
:102BA000882309F477CD60E070E08DE090E10E9429
:102BB000810A89E090E0D8018D939C9320C083E145
:102BC00090E0F80191838083FE01EC58FC4F81E096
:102BD00090E091838083CA58DC4F998388836CEBA3
:102BE00074E080E39FE0DF91CF911F910F91FF9000
:102BF000EF90DF90CF90BF90AF900C94346BDF914B
:102C0000CF911F910F91FF90EF90DF90CF90BF90E9
:102C1000AF9008958DE090E10E94416621E0892BFC
:102C200009F420E0822F0895F5DF882321F08DE05C
:102C300090E10C9477668FEF9FEF0895EF92FF92EB
:102C40000F931F93CF93DF937C018B01C0E0D0E003
:102C5000C017D10754F4C701E7DF6FE070E080E0F0
:102C600090E00E94BA642196F3CFDF91CF911F913B
:102C70000F91FF90EF900895AF92BF92CF92DF92A5
:102C8000EF92FF920F931F93CF93DF93CDB7DEB7F1
:102C900066970FB6F894DEBF0FBECDBF8C016B01F7
:102CA0007A8369835E0183E0A80EB11CEE24E3946D
:102CB000F12CE416F506A4F46FE070E080E090E0FB
:102CC0004D8B5E8B0E94BA64C801AEDFF501819323
:102CD00091935F01FFEFEF1AFF0A5E894D89E9CFFB
:102CE00085E0C816D10461F48B819C81F801E75A14
:102CF000FE4F918380838D819E8132969183808364
:102D0000BE016F5F7F4FC8010E94630D66960FB6CC
:102D1000F894DEBF0FBECDBFDF91CF911F910F9111
:102D2000FF90EF90DF90CF90BF90AF900895EF921B
:102D3000FF920F931F93CF93DF93EC017B010E94CF
:102D4000810D8C018130910509F43FC01CF400977E
:102D500051F088C08230910509F478C08330910524
:102D600009F474C07FC043E050E0B701CE0184DFB6
:102D7000882309F477C060E070E08DE090E10E9464
:102D8000810AB701CE010E949B0D8C0F9D1FFC0193
:102D9000E15EFE4F20812F5F2083FC0193858D81B2
:102DA0008E010F5E1C4F989FC0011124F801918382
:102DB0008083C059DC4F1982188261E974E080E396
:102DC0009FE00E94E76AF80133C043E050E0B7019A
:102DD000CE0152DF882309F445C060E070E08DE049
:102DE00090E10E94810AB701CE010E949B0D8C0FD9
:102DF0009D1FFC01E15FFE4F20812F5F2083FC01BE
:102E000093858D817E01FFEEEF1AFCEFFF0A989FFC
:102E1000C0011124F70191838083C059DC4F1983CD
:102E200008836BE774E080E39FE00E94E76AF701A4
:102E3000608171814AE050E080E39FE0DF91CF91B3
:102E40001F910F91FF90EF900C94096C60E070E07F
:102E50008DE090E1DF91CF911F910F91FF90EF9066
:102E60000C94810ADF91CF911F910F91FF90EF9009
:102E70000895EF92FF920F931F93CF93DF93EC018E
:102E80006B30710509F4C5C06CF46830710509F444
:102E90006AC06930710509F47DC06630710509F0BA
:102EA000E9C017C06232710509F4BDC04CF461324B
:102EB000710509F0DFC042E050E061E270E0B7C0A8
:102EC0006332710509F4D1C06F32710509F4B4C0E1
:102ED000D1C08C010D5D1C4FF801808191819E0154
:102EE000295A3C4F7901892B29F40E948B64F70100
:102EF000718360830E948B64FE01EB5AFC4F7183E7
:102F00006083F70120813181621B730B6938734143
:102F100018F0F80111821082F801808191810196E8
:102F200091838083059709F0A5C069E173E080E390
:102F30009FE00E94346B60E070E08DE090E10E94C1
:102F4000810AFE01EC58FC4F1182108232961182E8
:102F50001082C659DC4F82E090E099838883F801A3
:102F60001182108287C06FEF72E080E39FE00E94C1
:102F7000346B60E070E08DE090E10E94810A21E016
:102F800041E060E0CE01DF91CF911F910F91FF9062
:102F9000EF9017C88C010B5D1C4FF8018081918167
:102FA0009E01215A3C4F7901892B29F40E948B64A0
:102FB000F701718360830E948B64FE01E35AFC4F2A
:102FC00071836083F70120813181621B730B693843
:102FD000734118F0F80111821082F801808191810B
:102FE000019691838083059709F044C061EF72E0F8
:102FF00080E39FE00E94346B60E070E08DE090E140
:103000000E94810AC95DDC4F81E090E0998388834A
:1030100031C042E050E06BE070E02EDE882351F1D9
:1030200061EE72E012C042E050E062E270E0CE0178
:1030300023DE8823F9F00DC042E050E06FE270E03B
:103040001BDE8823B9F061EC72E080E39FE00E9410
:10305000346B60E070E08DE090E1DF91CF911F91E3
:103060000F91FF90EF900C94810A42E050E063E2F0
:1030700070E0DDCFDF91CF911F910F91FF90EF9026
:1030800008950F931F93CF93DF93EC018B010E9460
:10309000EA0D04978830910508F0B0C18D569F4F16
:1030A000FC010C946E6ECE010E94100C811106C0C2
:1030B000CE010E94640E81115BC05EC142E050E00F
:1030C000B801CE01D9DD882309F498C160E070E031
:1030D0008DE090E10E94810AB801CE010E94400E6D
:1030E0008E010F5E1C4F8E96880F991F8C0F9D1FAF
:1030F000FE01EE5AFF4FDC014D915C912081318140
:10310000429FC001439F900D529F900D1124F801E2
:10311000918380833E9680819181C059DC4F892BB9
:10312000B9F484E090E09983888367E074E080E3F9
:103130009FE00E94E76AD8016D917C914AE050E0DF
:1031400080E39FE0DF91CF911F910F910C94096C68
:103150008CE090E099838883118210826FED73E098
:1031600080E39FE00E94E76AF80160817181E6CF09
:10317000CE015ADD60E070E08DE090E10E94810AAE
:10318000B801CE010E94400E8E010F5E1C4F8E963C
:10319000880F991F8C0F9D1FFE01EE5AFF4FDC0117
:1031A0004D915C9120813181429FC001439F900DE0
:1031B000529F900D1124F801918380833E96808167
:1031C0009181C059DC4F892B39F484E090E09983D8
:1031D000888369EB73E0ABCF8CE090E099838883C0
:1031E0001182108261E973E0BBCFCE010E94100C06
:1031F000811138C043E050E0B801CE013DDD8823A5
:1032000009F4FCC060E070E08DE090E10E94810A6A
:10321000B801CE010E94400E8E96880F991F8C0F28
:103220009D1FFE01EE5AFF4FDC014D915C91208104
:103230003181429FC001439F900D529F900D1124F8
:103240008E010F5E1C4FF80191838083C059DC4FC3
:1032500025E030E039832883892B09F4CFC06DE65F
:1032600073E065CF42E050E0B801CE0105DD882370
:1032700009F4C4C060E070E08DE090E10E94810A32
:10328000B801CE010E94400E8E96880F991F8C0FB8
:103290009D1FFE01EE5AFF4FDC014D915C91208194
:1032A0003181429FC001439F900D529F900D112488
:1032B0008E010F5E1C4FF80191838083C059DC4F53
:1032C00025E030E039832883892B09F497C069E42D
:1032D00073E02DCFCE010E94100C811116C043E087
:1032E00050E0B801CE01C8DC882309F487C060E053
:1032F00070E08DE090E10E94810AB801CE010E9449
:10330000400E8C0167E373E015C042E050E0B80165
:10331000CE01B2DC882309F471C060E070E08DE07A
:1033200090E10E94810AB801CE010E94400E8C01FA
:1033300065E273E080E39FE00E94E76AF801BE96D1
:10334000EE0FFF1FEC0FFD1FCE5ADF4F20813181A2
:1033500088819981289FB001299F700D389F700D39
:103360001124ECCE60E070E08DE090E1DF91CF9130
:103370001F910F910C94810A43E050E0B801CE01F7
:103380007BDC8823D9F160E070E08DE090E10E9461
:10339000810AB801CE010E94400E8E010F5E1C4FC3
:1033A0008E96880F991F8C0F9D1FFE01EE5AFF4FBE
:1033B000DC014D915C9120813181429FC001439F8E
:1033C000900D529F900D1124F801918380833E96B9
:1033D00080819181C059DC4F892B39F484E090E0E1
:1033E0009983888365E574E0A2CE8CE090E09983B0
:1033F0008883118210826DE274E0B2CEDF91CF91AA
:103400001F910F9108950F931F93CF93DF93EC01BA
:103410000E948B64FE01E35BFC4F718360838E012D
:10342000015B1C4FF80120813181621B730B6333F8
:10343000710508F491C00E948B64F8017183608368
:1034400000541109F801808191818330910501F1C7
:1034500034F48130910559F0029791F07DC08530A8
:10346000910579F1F4F0069709F43EC075C068E063
:1034700071E08DE090E10E94810A68E070E029C06F
:10348000CE01D2DB8115914041F5C258DC4F10C00E
:1034900060E371E08DE090E10E94810A60E370E0FA
:1034A00018C0CE01C1DB8115914039F4C458DC4FFE
:1034B00081E090E09983888310C0CE010E94B10F13
:1034C0000CC060E171E08DE090E10E94810A60E152
:1034D00070E08DE090E10E94810AF8018081918185
:1034E00001969183808338C0CE019EDB8115914087
:1034F00039F481E090E0FE01E058FC4F9183808335
:10350000FE01E258FC4F80819181EF54F109892B33
:10351000C1F4DE01A058BC4F8D919C911197892B6D
:1035200081F414978D919C91892B59F481E090E05E
:10353000918380836EE972E080E39FE00E94346BA8
:1035400002C011821082F801118210820E948B64E5
:10355000CD5ADC4F79836883DF91CF911F910F9112
:103560000895CF92DF92EF92FF920F931F93CF9324
:10357000DF93EC010E948B64FE01E35CFC4F7183DE
:1035800060837E0121ECE21A2CEFF20AF701208120
:103590003181621B730B6830710508F457C0CE018E
:1035A00039DBFE01E55DFC4F882309F446C011823A
:1035B0001082CE0139DB8C0164EB72E080E39FE086
:1035C0000E94E76A4AE050E0B80180E39FE00E9471
:1035D000096CB801CE010E94BF0D8230910519F02F
:1035E000039729F026C0B801CE01A1DB22C00E94BA
:1035F0008B64FE01EB59FC4F718360836E01F9E926
:10360000CF1AFCEFDF0AF60120813181621B730BB8
:103610006D32714018F0B801CE0133DD60E070E02A
:103620008DE090E10E94810A0E948B64F601718313
:103630006083B801CE011DDC04C081E090E091837D
:1036400080830E948B64F70171836083DF91CF9147
:103650001F910F91FF90EF90DF90CF900895EF9220
:10366000FF920F931F93CF93DF93EC010E948B6423
:10367000FE01EB5CFC4F718360838E01095C1C4F83
:10368000F80120813181621B730B6D33710508F4E1
:10369000E5C00E948B64F8017183608306501109B4
:1036A000F801808191818230910509F48DC0ECF49C
:1036B000019709F0D3C08FE091E0BE01675A7E4FB9
:1036C000FB019183808384E090E032969183808334
:1036D00043E050E0CE010E94500DFE01E35AFE4F40
:1036E00091838083E12CF12C21C08330910509F472
:1036F0007EC0049709F0B2C087E391E0BE01675A2B
:103700007E4FFB019183808389E090E03296918324
:10371000808343E050E0CE010E94500DFE01E35A49
:10372000FE4F91838083E12CF12C21C0FE01EE0D30
:10373000FF1DE75AFE4F608171818DE090E10E948C
:10374000810AF2E0EF0EF11C26E0E216F10471F7B7
:103750006FE070E080E090E00E94BA64CE0164DA2D
:10376000009709F47BC08115914011F539C0FE0125
:10377000EE0DFF1DE75AFE4F608171818DE090E1F3
:103780000E94810AF2E0EF0EF11C26E0E216F1043D
:1037900071F76FE070E080E090E00E94BA64CE01C3
:1037A00043DA009709F45AC08115914009F453C0D7
:1037B00060E070E08DE090E1DF91CF911F910F917B
:1037C000FF90EF900C94810A6AE071E08DE090E147
:1037D0000E94810A6AE070E08DE090E10E94810A17
:1037E000F8018081918101969183808337C08DE0BB
:1037F00090E10E94416642978CF1E12CF12C8DE022
:1038000090E10E947766FE01EE0DFF1DE75AFE4F24
:1038100091838083F2E0EF0EF11C26E2E216F104C0
:1038200071F7FE01E55AFE4F8081ED54F109808366
:103830009E0180E090E0FE01E80FF91FE15FFE4F7E
:10384000D901A35ABE4F4C91408301962E5F3F4F42
:103850008331910581F7F80111821082DF91CF91B8
:103860001F910F91FF90EF900895EF92FF920F93A9
:103870001F93CF93DF93EC010E948B64FE01EB5BFF
:10388000FC4F718360838E01095B1C4FD8012D9121
:103890003C91621B730B6333710508F41AC20E94DA
:1038A0008B64F801718360830B5D1F4FD801ED912C
:1038B000FC91ED30F10508F00CC2E556FF4F0C9479
:1038C0006E6E68E071E08DE090E10E94810A68E030
:1038D00070E038C08DE090E10E94776681159140DC
:1038E00009F48FC0F80111821082F3C16BE071E01E
:1038F0008DE090E10E94810A6BE070E08DE090E144
:103900000E94810AD8018D919C9111970196B0C1B6
:103910008DE090E10E94576681159140F1F08DE0B5
:1039200090E10E947766FE01E75AFE4F9183808303
:103930008DE090E10E947766C55ADE4F99838883B7
:1039400060E070E08DE090E10E94810AF8018081E2
:103950009181019691838083BCC18DE090E1DF91DC
:10396000CF911F910F91FF90EF900C94776669E0D3
:1039700071E08DE090E10E94810A69E070E0BECFC5
:103980008DE090E10E9441660F970CF4A2C1E12CFA
:10399000F12C8DE090E10E947766FE01EE0DFF1D97
:1039A000EF5DFD4F918380836FE070E080E090E0F9
:1039B0000E94BA64B2E0EB0EF11CE0E3EE16F104F3
:1039C00041F7FE01E55FFC4F118210829E0180E00D
:1039D00090E0D901A15DBD4F4D915C91DE01A80F32
:1039E000B91F453651051CF01B961C9202C01B9650
:1039F0004C9301962E5F3F4F8031910551F7918393
:103A0000808360E070E07ACFFE01EF5DFD4F808142
:103A100088833296808191819A83898332968081CE
:103A200091819C838B83329680818D8332968081B5
:103A30008E8332968081918198878F8332968081A0
:103A400091819A87898787E090E0F80183CF6AE0C7
:103A500071E08DE090E10E94810A6AE070E04ECF53
:103A60008DE090E10E94416642970CF432C1E12C56
:103A7000F12C8DE090E10E947766FE01EE0DFF1DB6
:103A8000E75AFE4F918380836FE070E080E090E022
:103A90000E94BA64B2E0EB0EF11CE6E2EE16F1040D
:103AA00041F7FE01E55AFE4F8081ED54F109808314
:103AB0009E0180E090E0FE01E80FF91FE15FFE4FFC
:103AC000D901A35ABE4F4C91408301962E5F3F4FC0
:103AD0008331910581F716CF8FE091E0BE01675ADF
:103AE0007E4FFB019183808332961182108243E0E6
:103AF00050E0CE010E94500DFE01E35AFE4F91832B
:103B00008083E12CF12CFE01EE0DFF1DE75AFE4FE4
:103B1000608171818DE090E10E94810AF2E0EF0EF8
:103B2000F11C26E0E216F10471F764E670E080E033
:103B300090E00E94BA64E12CF12C8DE090E10E94AB
:103B40004166892B89F08DE090E10E947766FE0145
:103B5000EE0DFF1DE75AFE4F918380836AE070E00F
:103B600080E090E00E94BA6482E0E80EF11CA2E4DA
:103B7000EA16F10411F79E0180E090E0FE01E35F98
:103B8000FC4F41E050E08330910568F4D901A75A19
:103B9000BE4F6C91DE01A80FB91F5B966C936A341F
:103BA00011F451834083BC01635071096C3071057D
:103BB00048F4D901A75ABE4F6C91DE01A80FB91F76
:103BC0005B966C93BC016F5071096C30710548F4C1
:103BD000D901A75ABE4F6C91DE01A80FB91F5B96A1
:103BE0006C93BC016B5171096230710548F4D901C5
:103BF000A75ABE4F6C91DE01A80FB91F5B966C935C
:103C0000BC016D5171096430710548F4D901A75A9E
:103C1000BE4F6C91DE01A80FB91F5B966C930196A5
:103C20002E5F3F4F8132910509F0ADCF89CECE0195
:103C30000E943F0F8CE090E0D8011AC08DE090E127
:103C40000E947766FE01E75AFE4F918380838115BB
:103C5000914009F47BCE8DE090E10E947766C55AD1
:103C6000DE4F99838883D8018D919C91119701979C
:103C70008D939C932EC062E070E0CE010E941E16D0
:103C800060E070E08DE090E10E94810A80E190E0C8
:103C9000F8019183808381E090E0FE01E858FC4FB9
:103CA0009183808368EA74E080E39FE00E94346B34
:103CB000FE01E258FC4F808191818130910549F4E9
:103CC000329720813181232B21F4CC58DC4F99830A
:103CD0008883DF91CF911F910F91FF90EF9008950E
:103CE000EF92FF920F931F93CF93DF93EC010E940B
:103CF0006D0CFE01E15FFC4F80819181892B09F001
:103D00005BC00E948B64FE01EF5AFC4F718360839D
:103D1000329620813181621B730B6B30710508F480
:103D20004DC0B19680819181892B09F03FC03896B2
:103D3000808191819E0122583C4F79018E0100586B
:103D40001C4F0197B9F4F90180819181019749F4E1
:103D5000369780819181019769F4CE010E945412B7
:103D600009C0F801808191810197B9F7FE01E658F9
:103D7000FC4FEFCFF70180819181019771F4F80139
:103D800080819181019739F4FE01E658FC4F8081D2
:103D90009181019711F4CE0168DDF8018081918154
:103DA000019761F4CE010E945C1008C0CE010E9410
:103DB0008F0ECE01D6DB02C0CE0125DBCE01DF9116
:103DC000CF911F910F91FF90EF9049CC0F931F93CC
:103DD000CF93DF93EC0181E090E0998388830E9488
:103DE0008B646A837B838C839D830E948B646E8348
:103DF0007F838887998760EC78E0CE010A960E94DD
:103E0000BD6C8E01005F1F4F60EC78E0C8010E941E
:103E1000BD6C1E8A188E1F8A60EC78E0CE014E962B
:103E20000E94BD6C1DA21CA21FA21EA219A618A64C
:103E300068EE73E0C8010E94846C61E084E00E9437
:103E4000A36561E084E00E94DC6560E084E00E949C
:103E5000DC6561E084E0DF91CF911F910F910C94BC
:103E6000DC65FC0186A197A10895FC0184A195A1C0
:103E70000895FC0175A364A30895BF92CF92DF92C9
:103E8000EF92FF920F931F93CF93DF93B62E7A0199
:103E9000FA01C480D580C0E0D0E000E010E0CC158D
:103EA000DD0564F4BE01C7010E94606DFC018081E4
:103EB0008B1102C00F5F1F4F2196F1CFC801DF9118
:103EC000CF911F910F91FF90EF90DF90CF90BF9017
:103ED0000895FF920F931F93CF93DF93EC018C0112
:103EE000005F1F4FFF24F3948AEE90E10E94416629
:103EF000892BB1F08AEE90E10E9477668A3059F4FE
:103F00006C897D8961507109C8010E94606DFC0156
:103F10001082FE8AE9CF682FC8010E942F6DE4CF7E
:103F2000DF91CF911F910F91FF900895CF93DF9371
:103F30008AEE90E10E944166EC01DD278AEE90E175
:103F40000E9477662197D0F7DF91CF9108950F9364
:103F50001F93CF93DF9300D000D0CDB7DEB78C0195
:103F6000E5DFF80115A214A2065F1F4F61E373E0BD
:103F7000C8010E94EF6CB801CE0101960E94E76C67
:103F8000BE016F5F7F4F8AEE90E10E94446BCE01CD
:103F900001960E94566C26960FB6F894DEBF0FBEAF
:103FA000CDBFDF91CF911F910F9108950F931F9374
:103FB000CF93DF9300D000D0CDB7DEB78C01B6DF52
:103FC000F80115A214A2065F1F4F61E473E0C80157
:103FD0000E94EF6CB801CE0101960E94E76CBE0111
:103FE0006F5F7F4F8AEE90E10E94446BCE01019695
:103FF0000E94566C26960FB6F894DEBF0FBECDBF5A
:10400000DF91CF911F910F910895CF92DF92EF92A0
:10401000FF920F931F93CF93DF93CDB7DEB7E69751
:104020000FB6F894DEBF0FBECDBF8C016FEB78E00A
:10403000CE01C1960E94BD6C6FEB78E0CE018B96ED
:104040000E94BD6C6FEB78E0CE0185960E94BD6C3E
:10405000C8013FDFF8018689882309F4A5C27801E9
:10406000F0E1EF0EF11CB701CE0101960E94E76C62
:10407000AE014F5F5F4F60E2C801FFDE6C01CE0111
:1040800001960E94566C1C141D040CF040C060E2A6
:10409000C7010E94B66D6C01181619065CF59C01EB
:1040A00040E050E0B701CE0101960E94B96DBE011B
:1040B0006F5F7F4FCE018B960E94D26CCE0101962E
:1040C0000E94566CF8012489358921503109A601D6
:1040D0004F5F5F4FB701CE0101960E94B96DBE01DF
:1040E0006F5F7F4FCE01C1960E94D26CCE010196C8
:1040F0000E94566C4DA95EA94F5F5F4F20E030E0F3
:10410000BE016F5F7F4FCE01C1960E94726D62E566
:1041100073E0C7010E94426D882389F06DE673E069
:10412000CE014F960E94BD6CBE01615E7F4F8AEE4C
:1041300090E10E94446BCE014F960E94566C6DE751
:1041400073E0CE018B960E94426D8823C1F0BE01C0
:104150006F5F7F4FC80149960E94C2706AE873E0A2
:10416000CE014F960E94BD6CBE01615E7F4F8AEE0C
:1041700090E10E94446BCE014F960E94566C64E918
:1041800073E0CE018B960E94426D882321F16AE98B
:1041900073E080E39FE00E941A6BBE016F5F7F4F68
:1041A00080E39FE00E94546B62EA73E0CE010196C7
:1041B0000E94B970892B79F4CC24C394D12CF801D6
:1041C000D182C0820E948B64F801628373838483EE
:1041D0009583D1A6C0A66DEA73E0C7010E94426D27
:1041E0008823B1F081E090E0F80195A384A36CEB03
:1041F00073E0CE014F960E94BD6CBE01615E7F4FA1
:104200008AEE90E10E94446BCE014F960E94566C5C
:1042100065EC73E0C7010E94426D882339F0F80114
:1042200017A216A281E090E095A384A366ED73E047
:10423000C7010E94426D882369F067EE73E080E356
:104240009FE00E94546B81E090E0F80197A386A361
:1042500095A384A365EF73E0C7010E94426D882394
:1042600049F082E090E0F80197A386A381E090E016
:1042700095A384A366E074E0C7010E94426D882381
:1042800049F083E090E0F80197A386A381E090E0F5
:1042900095A384A367E174E0C7010E94426D88235F
:1042A00049F084E090E0F80197A386A381E090E0D4
:1042B00095A384A368E274E0C7010E94426D88233D
:1042C00049F085E090E0F80197A386A381E090E0B3
:1042D00095A384A369E374E0C7010E94426D88231B
:1042E00049F086E090E0F80197A386A381E090E092
:1042F00095A384A36AE474E0C7010E94426D8823F9
:1043000031F069E574E080E39FE00E94546B6EE653
:1043100074E0C7010E94426D882331F06DE774E0BC
:1043200080E39FE00E94546B62E974E0C7010E9441
:10433000426D882331F064EA74E080E39FE00E94DC
:10434000546B6CEB74E0C7010E94426D882331F01E
:104350006EEC74E080E39FE00E94546B66EE74E0C4
:10436000C7010E94426D882349F069EF74E080E341
:104370009FE00E94546BF80115A214A263E075E05F
:10438000C7010E94426D882391F06FE075E080E3E1
:104390009FE00E94546B81E090E0F801918380835C
:1043A0000E948B64F80162837383848395836BE13D
:1043B00075E0C7010E94426D882391F067E275E0C5
:1043C00080E39FE00E94546B81E090E0F8019183CC
:1043D00080830E948B64F801628373838483958356
:1043E00063E375E0C7010E94426D882391F06BE39F
:1043F00075E080E39FE00E94546B81E090E0F8015B
:10440000918380830E948B64F80162837383848329
:10441000958363E475E0C7010E94426D882331F003
:104420006CE475E080E39FE00E94546B65E575E005
:10443000C7010E94426D882331F06EE575E080E38C
:104440009FE00E94546B67E675E0C7010E94426DD1
:10445000882331F064E775E080E39FE00E94546BAD
:1044600061E875E0C7010E94426D882331F06EE873
:1044700075E080E39FE00E94546B6BE975E0C70133
:104480000E94426D882361F081E090E0F801918301
:1044900080830E948B64F801628373838483958395
:1044A00061EB75E0C7010E94426D67EC75E0C701E2
:1044B0000E94426D6DED75E0C7010E94426D63EF91
:1044C00075E0C7010E94426D69E076E0C7010E9475
:1044D000426D8823B1F0CC24C394D12CF801D18251
:1044E000C0820E948B64F801628373838483958306
:1044F00069E076E080E39FE00E94546BF801D1A66A
:10450000C0A66CE176E0C7010E94426D882331F0BD
:104510006CE176E080E39FE00E94546B61E376E01B
:10452000C7010E94426D882331F061E376E080E3A9
:104530009FE00E94546B61E476E0C7010E94426DE7
:10454000882331F061E476E080E39FE00E94546BC1
:104550006BE476E0C7010E94426D8823F1F067E5C5
:1045600076E080E39FE00E94546B65E676E0CE0142
:104570004F960E94BD6CBE01615E7F4F8AEE90E156
:104580000E94446BCE014F960E94566C81E090E0F1
:10459000F801908F878BC801C9DC60EC78E0C70117
:1045A0000E94EF6CF801168ACE0185960E94566C27
:1045B000CE018B960E94566CCE01C1960E94566C1D
:1045C000E6960FB6F894DEBF0FBECDBFDF91CF9158
:1045D0001F910F91FF90EF90DF90CF9008950F9370
:1045E0001F93CF93DF93EC0110DD0E948B646E83E9
:1045F0007F83888799870A811B812C813D81DC011B
:10460000CB01801B910BA20BB30B81339547A10506
:10461000B10544F0198218820E948B646A837B83FF
:104620008C839D83DF91CF911F910F910895CF933C
:10463000DF93EC010E948B646D837E838F83988768
:104640001A8619866DE072E086EF98E0DF91CF91CF
:104650000C94E7590F931F93CF93DF93EC0186EFF0
:1046600098E00E946F5C882339F088830E948B64F5
:1046700069837A838B839C8386EF98E00E94F65A45
:10468000039741F48D819E8129813A81821B930B8E
:104690009A8789870E948B646D837E838F83988736
:1046A00009811A812B813C81DC01CB01801B910B9C
:1046B000A20BB30BCD97A105B10514F480E007C0A0
:1046C00086EF98E00E94F65A0397C1F78881DF9140
:1046D000CF911F910F910895FC0110820895EF92E0
:1046E0000F9383E0E82E04E026E032E049E052E058
:1046F0006DE072E086EF98E00E948C590F91EF9088
:104700000895CF93DF9300D000D0CDB7DEB786E217
:104710009DE00E94C85F86E29DE00E947760811163
:1047200012C061E776E080E39FE00E94546B4AE5A7
:1047300053E16EE473E1CE0101960E940E5FCE015B
:1047400001960E94CD5F6CE286E29DE00E94576177
:10475000813409F04EC065EA76E080E39FE00E9474
:104760001A6B68E286E29DE00E9457614AE050E0E1
:10477000682F80E39FE00E943B6C6EEC76E080E364
:104780009FE00E941A6B69E286E29DE00E945761F9
:104790004AE050E0682F80E39FE00E943B6C63EDAD
:1047A00076E080E39FE00E941A6B6AE286E29DE079
:1047B0000E9457614AE050E0682F80E39FE00E942A
:1047C0003B6C63ED76E080E39FE00E941A6B6BE246
:1047D00086E29DE00E9457614AE050E0682F80E346
:1047E0009FE00E943B6C63EA76E080E39FE00E94DA
:1047F000546BCE0101960E949B604B8168E286E279
:104800009DE00E9468604C8169E286E29DE00E9422
:1048100068604D816AE286E29DE00E9468604E8198
:104820006BE286E29DE00E94686041E46CE286E211
:104830009DE00E94686026960FB6F894DEBF0FBE1A
:10484000CDBFDF91CF9108950F931F93CF93DF9347
:104850008B01EA019A0157FF02C021503F4F432FBD
:10486000BC0186E69EE00E94365ECE0160E071E00B
:104870000E941D6E482FB80186E69EE0DF91CF9121
:104880001F910F910C94365ECF93DF93EB01BC0127
:1048900086E69EE00E94335E90E09093C50D809383
:1048A000C40DBE0186E69EE00E94335E90E09093C8
:1048B000C30D8093C20D20E030E03091C40D820F13
:1048C000931FDF91CF91089580E00E944C6561E0D5
:1048D00087E30E94A36560E087E30E94DC6561E0F6
:1048E00087E10E94A36560E087E10E94DC6561E0EA
:1048F00085E40E94A36560E085E40E94DC6561E0D8
:104900008CE00E94A36560E08CE00E94DC6562E0C0
:1049100086E30E94A36561E08DE00E94A36561E0EB
:104920008DE00C94DC658FE39DE00E941E5D40E00D
:1049300063E08FE39DE00E94235D60E473E18FE319
:104940009DE00E94E76A41E066E08FE39DE00E94FF
:10495000235D68E373E18FE39DE00E94E76A42E034
:1049600064E08FE39DE00E94235D60E373E18FE3E9
:104970009DE00E94E76A43E060E08FE39DE00E94D3
:10498000235D60E273E18FE39DE00E94E76A43E00C
:104990006FE08FE39DE00E94235D4AE050E066E710
:1049A00070E08FE39DE00E94026C43E060E18FE3E2
:1049B0009DE00E94235D4AE050E066E770E08FE3EF
:1049C0009DE00E94026C43E060E18FE39DE00E9465
:1049D000235D6EE173E18FE39DE00E94E76A87E269
:1049E0009DE00E941E5D40E063E087E29DE00E9442
:1049F000235D60E173E187E29DE00E94E76A41E0A8
:104A000066E087E29DE00E94235D68E073E187E253
:104A10009DE00E94E76A42E064E087E29DE00E9438
:104A2000235D60E073E187E29DE00E94E76A43E076
:104A300060E087E29DE00E94235D60EF72E187E223
:104A40009DE00E94E76A43E06FE087E29DE00E94FC
:104A5000235D4AE050E066E770E087E29DE00E9457
:104A6000026C43E060E187E29DE00E94235D4AE042
:104A700050E066E770E087E29DE00E94026C43E050
:104A800060E187E29DE00E94235D6EEE72E187E2C5
:104A90009DE00C94E76A20E044E064E18FE39DE050
:104AA0000E943B5D41E452E063E08FE39DE00E94A1
:104AB000F45D49E352E064E08FE39DE00E94F45D21
:104AC00041E352E065E08FE39DE00E94F45D49E23E
:104AD00052E066E08FE39DE00E94F45D41E252E027
:104AE00067E08FE39DE00E94F45D49E152E068E0F9
:104AF0008FE39DE00E94F45D20E044E064E187E202
:104B00009DE00E943B5D41E452E063E087E29DE06E
:104B10000E94F45D49E352E064E087E29DE00E9478
:104B2000F45D41E352E065E087E29DE00E94F45DC0
:104B300049E252E066E087E29DE00E94F45D41E2D6
:104B400052E067E087E29DE00E94F45D49E152E0B7
:104B500068E087E29DE00E94F45DE5DE0E948B64E0
:104B60006093730D7093740D8093750D9093760D13
:104B70000E948B6460937B0D70937C0D80937D0D00
:104B800090937E0D0E948B646093630D7093640D0F
:104B90008093650D9093660D0E948B646093430E25
:104BA0007093440E8093450E9093460E67EE73E02B
:104BB00086E69EE00E94335E91E0811101C090E0A4
:104BC0009093A70D892F90E09093DD0D8093DC0DDD
:104BD0006AEE73E089EE93E057DEAA2797FDA09571
:104BE000BA2F8093F90D9093FA0DA093FB0DB0931B
:104BF000FC0D6CEE73E08BEE93E046DEAA2797FD8A
:104C0000A095BA2F8093BC0D9093BD0DA093BE0DBF
:104C1000B093BF0D6EEE73E08DEE93E035DEAA2704
:104C200097FDA095BA2F8093B80D9093B90DA093DE
:104C3000BA0DB093BB0D60EF73E08FEE93E024DE0E
:104C4000AA2797FDA095BA2F8093B40D9093B50D28
:104C5000A093B60DB093B70D62EF73E081EF93E0D0
:104C600013DEAA2797FDA095BA2F8093B00D9093DD
:104C7000B10DA093B20DB093B30D61E273E080E289
:104C800093E002DE90930A0E8093090E64EF73E0C6
:104C900083EF93E0F9DD9093120E8093110E31DDD6
:104CA00060ED77E086E69EE00E94335E90E09093B0
:104CB0002E0E80932D0E64E378E086E69EE00E943F
:104CC000335E90E09093590E8093580E80912D0E94
:104CD00090912E0E0A9709F486C010920A0E109237
:104CE000090E40E050E061E273E080E293E0ACDD69
:104CF0001092120E1092110E40E050E064EF73E03B
:104D000083EF93E0A1DD1092A70D1092DD0D1092BC
:104D1000DC0D40E067EE73E086E69EE00E94365EC2
:104D20001092F90D1092FA0D1092FB0D1092FC0DDD
:104D300040E050E06AEE73E089EE93E085DD10928A
:104D4000BC0D1092BD0D1092BE0D1092BF0D1092B1
:104D5000B80D1092B90D1092BA0D1092BB0D1092B1
:104D6000B40D1092B50D1092B60D1092B70D1092B1
:104D7000B00D1092B10D1092B20D1092B30D40E033
:104D800050E06CEE73E08BEE93E05EDD4091B80D89
:104D90005091B90D6EEE73E08DEE93E055DD4091CC
:104DA000B40D5091B50D60EF73E08FEE93E04CDDE4
:104DB0004091B00D5091B10D62EF73E081EF93E03F
:104DC00043DD1092590E1092580E40E064E378E0F3
:104DD00086E69EE00E94365E4AE060ED77E086E679
:104DE0009EE00C94365E089526E030E040E052EC00
:104DF00061E070E080E39FE00E94D26726E031E04E
:104E000040E855E260E070E08DE090E10E94D267FA
:104E100026E030E040E855E260E070E08AEE90E1A4
:104E20000E94D26751DD37DE8AE999E00C94280CA4
:104E3000CF92DF92EF92FF920F931F938091C80D54
:104E40009091C90D892B39F46EDD81E090E090934B
:104E5000C90D8093C80D8091AE0D81114AC00E948A
:104E60008B646093970D7093980D8093990D909338
:104E70009A0D0091930D1091940D2091950D309104
:104E8000960D6B017C01C01AD10AE20AF30A49EEC1
:104E9000C41643E0D406E104F10458F16093930D85
:104EA0007093940D8093950D9093960D42E06091D0
:104EB0004D028FE39DE00E94235D6CEE72E18FE373
:104EC0009DE00E94E76A42E060914D0287E29DE02A
:104ED0000E94235D6AEE72E187E29DE00E94E76A2C
:104EE00080914D0290914E02019690934E028093D4
:104EF0004D020E948B6460938F0D7093900D809390
:104F0000910D9093920D00918B0D10918C0D20912D
:104F10008D0D30918E0DDC01CB01801B910BA20B0E
:104F2000B30B81379741A105B10548F081E080932B
:104F3000AE0D81E090E09093060E8093050E0091F7
:104F4000050E1091060E0130110531F58091030E0A
:104F50009091040E892B01F587E29DE00E941E5D71
:104F600041E060E087E29DE00E94235D6AED72E12E
:104F700087E29DE00E94E76A42E060E087E29DE010
:104F80000E94235D6BEC72E187E29DE00E94E76A7C
:104F90001093040E0093030E1F910F91FF90EF905A
:104FA000DF90CF9008958091AE0D882389F120E0A5
:104FB00044E064E18FE39DE00E943B5D41E452E008
:104FC00063E08FE39DE00E94F45D49E352E064E01A
:104FD0008FE39DE00E94F45D41E352E065E08FE3E2
:104FE0009DE00E94F45D49E252E066E08FE39DE0BF
:104FF0000E94F45D41E252E067E08FE39DE00E9491
:10500000F45D49E152E068E08FE39DE00C94F45DCB
:10501000089560E087E30E94DC6560E085E40E941B
:10502000DC6560EC78E080E39FE00E94546B64E311
:1050300077E080E39FE00E94546B68E477E080E3D0
:105040009FE00E941A6B6091D20D7091D30D4AE0DF
:1050500050E080E39FE00E94026C63EA76E080E328
:105060009FE00E94546B60EC78E080E39FE00E9438
:10507000546B1092D30D1092D20D1092D50D109248
:10508000D40D1092D10D1092D00D1092CB0D109224
:10509000CA0D1092020E0E948B6460935F0D709394
:1050A000600D8093610D9093620D81E08093C00D3F
:1050B00008950F931F938091C60D9091C70D892B72
:1050C000A1F082E090E09093C70D8093C60D0E94FE
:1050D0008B646093730D7093740D8093750D909332
:1050E000760D61E08CE00E94DC658091C60D9091A8
:1050F000C70D029729F50E948B6460937F0D709312
:10510000800D8093810D9093820D00917B0D109105
:105110007C0D20917D0D30917E0DDC01CB01801B3B
:10512000910BA20BB30B81359105A105B10540F0A0
:1051300060E08CE00E94DC651092C70D1092C60DF5
:105140001F910F9108950F931F938091DA0D909105
:10515000DB0D45972CF10E948B646093770D709363
:10516000780D8093790D90937A0D0091730D1091C5
:10517000740D2091750D3091760DDC01CB01801BF3
:10518000910BA20BB30B893B9848A105B10540F0E8
:105190008FE39DE00E94E75D1092DB0D1092DA0D27
:1051A0001F910F9108958091F90D9091FA0DA091A2
:1051B000FB0DB091FC0D0597A105B10524F48AE91A
:1051C00099E00C94B10F0895CF93DF9300D000D0F5
:1051D000CDB7DEB7CE0101960E949B608981853AEA
:1051E00009F4ABC08C8142E062E08A3060F48FE366
:1051F0009DE00E94235D64E177E08FE39DE00E94E3
:10520000E76A42E063E08FE39DE00E94235D4AE0AD
:1052100050E06C818FE39DE00E943B6C8D8142E009
:1052200065E08A3060F48FE39DE00E94235D62E1D7
:1052300077E08FE39DE00E94E76A42E066E08FE35B
:105240009DE00E94235D4AE050E06D818FE39DE088
:105250000E943B6C42E068E08FE39DE00E94235D8A
:1052600060E177E08FE39DE00E94E76A8B8142E096
:105270006AE08A3060F48FE39DE00E94235D6EE077
:1052800077E08FE39DE00E94E76A42E06BE08FE306
:105290009DE00E94235D4AE050E06B818FE39DE03A
:1052A0000E943B6C6CE077E08FE39DE00E94E76A30
:1052B0008A8142E06DE08A3060F48FE39DE00E94D5
:1052C000235D6AE077E08FE39DE00E94E76A42E0B9
:1052D0006EE08FE39DE00E94235D4AE050E06A812A
:1052E0008FE39DE00E943B6C42E06FE08FE39DE026
:1052F0000E94235D68E077E08FE39DE00E94E76A0B
:10530000898142E060E18A3060F48FE39DE00E9491
:10531000235D66E077E08FE39DE00E94E76A42E06C
:1053200061E18FE39DE00E94235D698170E04AE0C6
:1053300050E08FE39DE00E94416C26960FB6F894F2
:10534000DEBF0FBECDBFDF91CF910895CF93DF9326
:10535000EB012B81039709F0B1C043E062E087E2E3
:105360009DE02A3060F40E94235D64E077E087E2EC
:105370009DE00E94E76A43E063E087E29DE00E94CF
:10538000235D4AE050E06B8187E29DE00E943B6C28
:1053900043E064E087E29DE00E94235D62E077E005
:1053A00087E29DE00E94E76A8C8143E065E08A30F5
:1053B00060F487E29DE00E94235D60E077E087E291
:1053C0009DE00E94E76A43E066E087E29DE00E947C
:1053D000235D4AE050E06C8187E29DE00E943B6CD7
:1053E00043E068E087E29DE00E94235D6EEF76E097
:1053F00087E29DE00E94E76A8A8143E06AE08A30A2
:1054000060F487E29DE00E94235D6CEF76E087E226
:105410009DE00E94E76A43E06BE087E29DE00E9426
:10542000235D4AE050E06A8187E29DE00E943B6C88
:1054300043E06CE087E29DE00E94235D6AEF76E046
:1054400087E29DE00E94E76A898143E06DE08A304F
:1054500060F487E29DE00E94235D68EF76E087E2DA
:105460009DE00E94E76A43E06EE087E29DE00E94D3
:10547000235D4AE050E0698187E29DE00E943B6C39
:1054800043E06FE087E29DE00E94235D66EF76E0F7
:1054900087E29DE00E94E76A888143E060E18A300C
:1054A00008F0B6C087E29DE00E94235D64EF76E0DD
:1054B00087E29DE00E94E76A43E0A9C042E062E023
:1054C00087E29DE02A3060F40E94235D62EF76E07F
:1054D00087E29DE00E94E76A42E063E087E29DE0A8
:1054E0000E94235D4AE050E06B8187E29DE00E94CC
:1054F0003B6C42E064E087E29DE00E94235D60EF48
:1055000076E087E29DE00E94E76A8C8142E065E0F8
:105510008A3060F487E29DE00E94235D6EEE76E0C3
:1055200087E29DE00E94E76A42E066E087E29DE054
:105530000E94235D4AE050E06C8187E29DE00E947A
:105540003B6C42E068E087E29DE00E94235D6CEEE8
:1055500076E087E29DE00E94E76A8A8142E06AE0A5
:105560008A3060F487E29DE00E94235D6AEE76E077
:1055700087E29DE00E94E76A42E06BE087E29DE0FF
:105580000E94235D4AE050E06A8187E29DE00E942C
:105590003B6C68EE76E087E29DE00E94E76A8981D5
:1055A00042E06DE08A3060F487E29DE00E94235D76
:1055B00066EE76E087E29DE00E94E76A42E06EE0F8
:1055C00087E29DE00E94235D4AE050E0698187E226
:1055D0009DE00E943B6C42E06FE087E29DE00E940C
:1055E000235D64EE76E087E29DE00E94E76A8881B1
:1055F00042E060E18A3060F487E29DE00E94235D32
:1056000062EE76E087E29DE00E94E76A42E061E1B7
:1056100087E29DE00E94235D688170E04AE050E0EF
:1056200087E29DE0DF91CF910C94416C0F931F9323
:10563000CF93DF9300D000D0CDB7DEB78C01CE0181
:1056400001960E949B600130110509F0B7C0898165
:10565000853A09F484C18C8140E062E08A3060F4CC
:1056600087E29DE00E94235D60EE76E087E29DE0A8
:105670000E94E76A40E063E087E29DE00E94235DCC
:105680004AE050E06C8187E29DE00E943B6C40E084
:1056900064E087E29DE00E94235D6EED76E087E2A4
:1056A0009DE00E94E76A8D8140E065E08A3060F409
:1056B00087E29DE00E94235D6CED76E087E29DE04D
:1056C0000E94E76A40E066E087E29DE00E94235D79
:1056D0004AE050E06D8187E29DE00E943B6C40E033
:1056E00068E087E29DE00E94235D6AED76E087E254
:1056F0009DE00E94E76A8B8140E06AE08A3060F4B6
:1057000087E29DE00E94235D68ED76E087E29DE000
:105710000E94E76A40E06BE087E29DE00E94235D23
:105720004AE050E06B8187E29DE00E943B6C40E0E4
:105730006CE087E29DE00E94235D66ED76E087E203
:105740009DE00E94E76A8A8140E06DE08A3060F463
:1057500087E29DE00E94235D64ED76E087E29DE0B4
:105760000E94E76A40E06EE087E29DE00E94235DD0
:105770004AE050E06A8187E29DE00E943B6C40E095
:105780006FE087E29DE00E94235D62ED76E087E2B4
:105790009DE00E94E76A898140E060E18A3008F07C
:1057A000D2C087E29DE00E94235D60ED76E087E253
:1057B0009DE00E94E76A40E061E1C5C0023011054A
:1057C00009F0CDC040E061E187E29DE00E94235DE9
:1057D0006DEC76E087E29DE00E94E76A8981853A78
:1057E00009F4BDC08C8140E060E08A3060F487E25B
:1057F0009DE00E94235D6BEC76E087E29DE00E94D5
:10580000E76A40E061E087E29DE00E94235D4AE0B4
:1058100050E06C8187E29DE00E943B6C40E062E0DA
:1058200087E29DE00E94235D69EC76E087E29DE0DF
:105830000E94E76A8D8140E063E08A3060F487E28D
:105840009DE00E94235D67EC76E087E29DE00E9488
:10585000E76A40E064E087E29DE00E94235D4AE061
:1058600050E06D8187E29DE00E943B6C40E066E085
:1058700087E29DE00E94235D65EC76E087E29DE093
:105880000E94E76A8B8140E068E08A3060F487E23A
:105890009DE00E94235D63EC76E087E29DE00E943C
:1058A000E76A40E069E087E29DE00E94235D4AE00C
:1058B00050E06B8187E29DE00E943B6C40E06AE033
:1058C00087E29DE00E94235D61EC76E087E29DE047
:1058D0000E94E76A8A8140E06BE08A3060F487E2E8
:1058E0009DE00E94235D6FEB76E087E29DE00E94E1
:1058F000E76A40E06CE087E29DE00E94235D4AE0B9
:1059000050E06A8187E29DE00E943B6C40E06DE0E0
:1059100087E29DE00E94235D6DEB76E087E29DE0EB
:105920000E94E76A898140E06EE08A3060F487E295
:105930009DE00E94235D6BEB76E087E29DE00E9494
:10594000E76A40E06FE087E29DE00E94235D6981A5
:1059500070E04AE050E087E29DE00E94416C2696AC
:105960000FB6F894DEBF0FBECDBFDF91CF911F9170
:105970000F9108950F931F938091DA0D9091DB0D95
:10598000009719F0449709F0A9C08091C10D8111C9
:10599000A5C08091AE0D882309F4A0C00E948B643D
:1059A0006093470E7093480E8093490E90934A0E71
:1059B0000091430E1091440E2091450E3091460EF9
:1059C000DC01CB01801B910BA20BB30B893E9340F2
:1059D000A105B105C0F18091F90D9091FA0DA0914A
:1059E000FB0DB091FC0D0597A105B10564F1809107
:1059F000A70D882341F18091570E81110CC081E0E1
:105A00008093570E42E064E08FE39DE00E94235DA7
:105A100069EB76E00AC01092570E42E064E08FE333
:105A20009DE00E94235D67EB76E08FE39DE00E949E
:105A3000E76A0E948B646093430E7093440E8093D8
:105A4000450E9093460E0E948B646093670D709391
:105A5000680D8093690D90936A0D0091630D10910C
:105A6000640D2091650D3091660DDC01CB01801B2A
:105A7000910BA20BB30B81319742A105B105B8F090
:105A800092DA1092DB0D1092DA0D1092020E8091D4
:105A9000670D9091680DA091690DB0916A0D80938A
:105AA000630D9093640DA093650DB093660D8FE325
:105AB0009DE00E94E75D8091A70D882379F0809199
:105AC000F90D9091FA0DA091FB0DB091FC0D059789
:105AD000A105B1051CF01F910F9176CB1F910F917D
